:400000000080002011000000550E0000550E000010B500F041FFC04670B51222264B1A6001F02AFE254801F027FF012001F044FE302001F0ADFC224A224B1A60224C8025C9
:40004000ED052560214A116802230B431360204A204B1A600022204B1A60204A136808218B431360FA20C00001F044FD1C4801F085FC882292011B4B1A601B4B1B49196058
:400080001B490A601B4A1A60802212061A4B1A608022D202194B1A604022194B1A600132184B1A601849082001F018FC082001F0EFFB256070BDC04630001040001BB700BB
:4000C0000600008004010B400C020B4078002E402D3E00007C002E4064F02E406CF02E40DC050000000301400000014040FF00800403014041FF008008010B4000010B403D
:400100000801014004010140D11D000010B572B600221C4B1A6000240FE01B486200131959000B00411889881A5AC31858880004104300F089FE0134E4B2012CEDD9134A67
:40014000134B1A6099231B04124A1360124A1360124A1360124A117806230B43DBB213700222104B1A60104A104B1A602022104B1A60C42292020F4B1A60FFF74DFF00F034
:4001800053FE10BD6CF02E407C960100990000EE000002400001024000500F4010500F4000700F40000004403100D80008000440000104400801044010B5064C2378002B23
:4001C00007D1054B002B02D0044800E000BF0123237010BD80230020000000005C890100084B10B5002B03D00749084800E000BF07480368002B00D110BD064B002BFBD0A3
:400200009847F9E700000000842300205C890100181F00200000000010B5044C2368581C642102F059F8216010BDC0469C23002030B5314CA54462B601F0F6FC00F08AFE2E
:4002400000F020FF2D4801F071F800220023012000F064F800228023DB05022000F05EF80024274D22002B00042000F057F822002B00052000F052F822002B00062000F08A
:400280004DF800240BE0200001F0E6FC002804D11C49200001F0D8FC03E00134E4B2042CF1D9194B1B78022B22D1184B1B78002B1ED1174B1B78012B1AD1164B1B68002BC6
:4002C00016D142AC684600F085FAF8226946200002F03FFE3FAB01221A813F94F7329A800D4A13785078000218433FA912F09AFC04F00EF8D5E7C046FCFDFFFF390C0000B7
:400300000000F03F19020000C2360020C43600201C1F00209C230020C836002030B591B01D00342800D92AE28000DB4B1B589F461000290002F0C0F8C2B2D849684602F04F
:400340009FFE1CE21000290002F0B6F882B2D449684602F095FE12E21000290002F0ACF8C2B2D049684602F08BFE08E21000290002F0A2F8C2B2CC49684602F081FEFEE1D6
:400380001000290002F098F8C2B2C849684602F077FEF4E11000290002F08EF8C2B2C449684602F06DFEEAE11000290002F084F8C2B2C049684602F063FEE0E110002900EC
:4003C00002F07AF8C2B2BC49684602F059FED6E11000290002F070F8C2B2B849684602F04FFECCE11000290002F066F8C2B2B449684602F045FEC2E11000290002F05CF8D1
:40040000C2B2B049684602F03BFEB8E11000290002F052F8C2B2AC49684602F031FEAEE11000290002F048F8C2B2A849684602F027FEA4E11000290002F03EF8C2B2A449C5
:40044000684602F01DFE9AE11000290002F034F8C2B2A049684602F013FE90E11000290002F02AF8C2B29C49684602F009FE86E11000290002F020F8C2B29849684602F084
:40048000FFFD7CE11000290002F016F8C2B29449684602F0F5FD72E12B009249684602F0EFFD6CE11000290002F006F802008E49684602F0E5FD62E12B008C49684602F02E
:4004C000DFFD5CE11000290001F0F6FF02008849684602F0D5FD52E11000290001F0ECFFC2B28449684602F0CBFD48E12B008249684602F0C5FD42E12B008049684602F056
:40050000BFFD3CE11000290001F0D6FFC2B27C49684602F0B5FD32E11000290001F0CCFFC2B27849684602F0ABFD28E12B007649684602F0A5FD22E11000290001F0BCFFB6
:4005400082B27249684602F09BFD18E12B007049684602F095FD12E12B006E49684602F08FFD0CE16C4B1A6800929A8869468A809B798B7103E1694B1A6800921B796A46B1
:400580001371FCE0664B1A6800929B886A469380F5E0644B1A6800929B886A469380EEE0614B1A6800929B886A469380E7E05F4B1A6800929A8869468A809B798B71DEE010
:4005C0006A465B4B03CB03C2D9E05A4B1A6800929B886A469380D2E0574B1A6800929A8869468A809B798B71C9E0544B1A6800929B886A469380C2E0514B1A6800929A88B1
:4006000069468A809B798B71B9E04E4B1A6800929A8869468A809B798B71B0E04A4B1A6800929A8869468A809B798B71A7E06A46464B03CB03C2A2E0454B1A6800929A88F9
:4006400069468A809B798B7199E0424B1A6800929B886A46938092E01000290001F02CFFC2B23D49684602F00BFD88E06A463B4B03CB03C283E03A4B1A6800929A8869464A
:400680008A809B798B717AE0364B1A6800921B796A46137173E0C04660890100348A01003C8A0100448A01004C8A0100548A01005C8A0100648A01006C8A0100748A01004F
:4006C0007C8A0100888A0100908A0100988A0100A08A0100AC8A0100B88A0100C08A0100CC8A0100D88A0100E88A0100F48A0100008B01000C8B0100188B0100248B01008E
:40070000308B01003C8B0100488B0100588B0100648B0100748B0100848B01008C8B0100948B01009C8B0100A48B0100AC8B0100B48B0100BC8B0100C48B0100CC8B010085
:40074000D48B0100DC8B0100E48B0100EC8B0100F48B0100FC8B0100048C0100108C0100188C0100208C01006A46134B03CB03C205E0124B1A6800929B886A4693806846B6
:4007800000F08CFD00F074FDC0B23C28FAD100F06FFDC0B26F28FAD100F06AFDC0B26B28FAD100F065FDC0B23E28FAD1044802F05DFC11B030BDC046288C0100308C0100B5
:4007C000388C010010B52A2000F09AFC0A2001F0BDF810BDF0B5474680B48046FFF7F2FF00F046FD040000F043FD2402204380B2274B984247D142E0020AFF231840101899
:40080000381887B200F034FD060000F031FD3302184380B2012D0CD002DC002D05D016E0022D0AD0032D0DD011E06300424698520DE063004344D88009E0231D5B00434432
:40084000988004E0230008335B00434458800134E4B200E00024022CCED90135032D10D1020AFF2318401018381887B200F000FD040000F0FDFC2402204380B201E00025A7
:400880000027B842E6D1404604BC9046F0BDC04655550000002306E0C15C064AD25C914205D10133DBB2052BF6D9012000E000207047C046588D010010B50100144802F002
:4008C00059FB144B1A78052A1BD89300124AD3589F46124802F04EFB16E0114802F04AFB12E0104802F046FB0EE00F4802F042FB0AE00E4802F03EFB06E00D4802F03AFBB9
:4009000002E00C4802F036FB0B4802F0AFFB10BD608D0100C23600203C8C0100808D0100888D0100988D0100A48D0100B08D0100BC8D0100CC8D0100D48D010010B54028E6
:4009400000D9F6E080007D4B1B589F467C4802F011FBEEE07B4802F00DFBEAE07A4802F009FBE6E0794802F005FBE2E0784802F001FBDEE0774802F0FDFADAE0764802F0A0
:40098000F9FAD6E0754802F0F5FAD2E0744802F0F1FACEE0734802F0EDFACAE0724802F0E9FAC6E0714802F0E5FAC2E0704802F0E1FABEE06F4802F0DDFABAE06E4802F073
:4009C000D9FAB6E06D4802F0D5FAB2E06C4802F0D1FAAEE06B4802F0CDFAAAE06A4802F0C9FAA6E0694802F0C5FAA2E0684802F0C1FA9EE0674802F0BDFA9AE0664802F073
:400A0000B9FA96E0654802F0B5FA92E0644802F0B1FA8EE0634802F0ADFA8AE0624802F0A9FA86E0614802F0A5FA82E0604802F0A1FA7EE05F4802F09DFA7AE05E4802F072
:400A400099FA76E05D4802F095FA72E05C4802F091FA6EE05B4802F08DFA6AE05A4802F089FA66E0594802F085FA62E0584802F081FA5EE0574802F07DFA5AE0564802F072
:400A800079FA56E0554802F075FA52E0544802F071FA4EE0534802F06DFA4AE0524802F069FA46E0514802F065FA42E0504802F061FA3EE04F4802F05DFA3AE04E4802F072
:400AC00059FA36E04D4802F055FA32E04C4802F051FA2EE04B4802F04DFA2AE04A4802F049FA26E0494802F045FA22E0484802F041FA1EE0474802F03DFA1AE0464802F072
:400B000039FA16E0454802F035FA12E0444802F031FA0EE0434802F02DFA0AE0424802F029FA06E0414802F025FA02E0404802F021FA404802F09AFA10BDC046548C01006F
:400B4000D88D0100EC8D01000C8E0100208E0100308E0100488E01005C8E0100788E01008C8E0100A88E0100DC8E0100FC8E0100108F0100408F01006C8F01009C8F0100E3
:400B8000C08F0100E88F0100089001002C90010068900100A0900100C4900100D8900100EC900100FC90010034910100489101006091010078910100A8910100BC91010001
:400BC000009201001892010044920100649201007892010098920100B4920100D0920100E092010004930100249301004093010050930100749301008C930100B093010022
:400C0000C4930100DC930100F0930100149401003C940100509401008894010098940100BC940100DC940100089501002C950100449501002896010030B5C1B004000D009D
:400C4000FFF73AFE412C00D1BBE010D8242C00D1B7E004D8012C15D0202C1ED0B1E02B2C37D0312C57D0282C00D0AAE00EE04C2C62D004D8432C57D0442C59D0A1E0522CE2
:400C800062D09EE0002000F0ADFB9AE02878FFF755FE002000F0A6FB93E04B4802F0E6F91422290002A802F054F90398FFF7F2FD012800D085E000F0C1FB039B0193434C4E
:400CC00006221900200002F044F902AB5B78A37177E03F4802F0CAF93E4B1B78052B70D13D4802F047F9002408E005231B1B374AD15C3A4802F03EF90134E4B2052CF4D96D
:400D0000374802F0B3F9314800F0A4FB0100354802F030F955E0344802F0A8F9334B1878334910F0BDFA4CE00122324B1A7048E0314802F09BF944E02C4A13785078000204
:400D4000184311F0BBFF3CE0204A13000833290031C931C309681960D168F82202A802F0F8F802AB0021595E02AB02229A5E02AB04201B5E214802F0FDF802AB0621595E36
:400D800002AB08229A5E02AB0A201B5E1C4802F0F1F802AB0C21595E02AB0E229A5E02AB10201B5E174802F0E5F802AB1221595E02AB14229A5E02AB16201B5E124802F0D1
:400DC000D9F841B030BDC04694950100A0230020BC950100C2360020DC950100E895010028960100EC950100FC950100C8360020A81F00201C1F0020249601002C96010026
:400E000040960100549601006896010070B51600002405E04D1C087800F0ACF801342900B442F7DB300070BD0323044A1360044A13600022034B1A607047C04630003040BE
:400E400030003140000E3F4010B50A00002102F089F810BD10B502F041F803680C2B00D1FEE7FEE710B50300094A1068C318094A9A1A8021C9008A4202DC054A136005E0B7
:400E800002F02CF80C2303600120404210BDC046201F0020D036002070B50F4E0F4D13E029686B68AC68002202E001C901C30432A242FAD1E868002202E0002102C304325F
:400EC0008242FAD11035013E002EE9D102F00CF8FFF7AEF9FEE7C046010000001499010010B50E4A136801218B43136000230AE0032B03D89A000A49505800E0094899005A
:400F0000094A885001332F2BF2D9FFF7FFF8034A116801230B43136010BDC0460000104000000000550E00000000002010B500F083F810BD10B500F02BF810BD10B5044A3A
:400F40001368802109060B431360FFF7EFFF10BD0000244010B5064B1B78002B04D1FFF7E9FF0122024B1A70FFF7E8FF10BDC046B8230020044B1B681F221340082BF9D0E2
:400F8000024B18607047C0460802244040022440154A164B1A600023154A13601549164A1160164A16490A6007201649086016490B6006381549086015490A60154A1360BE
:400FC0000421154A1160154A1360154A1360154A1360154A1360154A1360154A13601268144B1A807047C0460B000002000024404000244001000A0048002440070000808D
:4010000000032440040324401003244044002440000224400402244050002440880E2440C80E2440480F2440080F2440C80F2440880F2440BA230020024B1A88024B1A60E8
:401040007047C046BA230020880F244010B50A2000F01EFC10BDC04610B500F0FFF810BD10B500F085F810BD10B5054A1368802109060B431360FFF7E9FFFFF7EDFF10BDEA
:401080000000254010B5064B1B78002B04D1FFF7E7FF0122024B1A70FFF7E6FF10BDC046BC230020094B1A68094B1B689A420BD0074B1B680133812B00D10023054AD05C17
:4010C000C0B2034A136000E0002070470C3600200436002014360020074B1B68074A1268934203D3054A1068181A04E0034A10681B1A8133180070470C3600200436002080
:40110000144B1A68144B1B689A4208D1134B1B681F221340082B02D0114B186019E00D4B1A680132802A00D100220B4B1B689A42FBD002230B490B60C0B20B4988540549F2
:401140000A600A4A1268134203D1084A11680B431360704710360020083600200802254040022540800F254080350020880F254070B5204A204B1A600024204B1C60204A43
:40118000204B1A60204B214A13600721204A1160204A14600639204A1160204A1360204B1C6004251F4B1D600A2000F07BFB03210A2000F0A5FB1C490A2000F08FFB1B4B55
:4011C0001C601B4B1C601B4B1C601B4B1C601B4B1D601B4B1C601A681A4B1A801A4B1C601A4B1C601A4B1C701A4B1C601A4B1C6070BDC0460B0000020000254040002540C8
:4012000001000A00480025400700008000032540040325401003254044002540000225400402254050002540991E0000880E2540C80E2540480F2540080F2540C80F254092
:40124000880F2540C42300200C36002004360020003600201036002008360020024B1A88024B1A607047C046C4230020880F254010B5FFF731FF002802D0FFF713FF00E052
:401280000020054B1A68D8239B001A4203D01A00014B1A60002010BDC00F254070B50500002402E0FFF72CFF0134285D0028F9D170BDC04610B500F0E1FA10BD10B5002202
:4012C000124B1A70124B1A70124B1A7012494888124B18808888588088791873C97919710621D9812231198200245A82FA2189009982DA82013A1A831F32094B1A80FFF742
:40130000D9FF084B1C70084B1C7010BDCB360020C4360020CA360020241F0020A4360020BE36002098360020A036002030B591B00400142221490BA801F00BFE204B1B7825
:40134000002B04D1FFF7BAFF01221D4B1A70002C31D01C4B1C6008AC05AD099506AB089303222281F8321A805A80F73A1A7102F0BFFF08232B7002F0C1FF162169442000FB
:4013800003F0A2F8002817D10F4B02930F4B0193052300930BAB0E4A0E490F4802F0EAFF002809D101220D4B1A70033211210C4812F094FE00E0012011B030BD889601003D
:4013C000C62300209C3600207902000000A70100581E0000C0000020D5150000C23600209C96010010B5022820D8002806D1104B1E221A8112325A809A8009E0012807D106
:401400000B4B96221A81802212015A80F83A9A80084B1870064810F00FFB002807D1064A117804230B43DBB2137000E0012010BD241F0020CA360020CB36002010B510F060
:4014400027FB034A117808230B43DBB2137010BDCB36002010B5134B1B78052B1CD100281DD0002305E0C15C0F4AD21851710133DBB2052BF7D983790B48C37210F082FA2A
:40148000041E0DD10422074B1A70084B1888002806D00DF095F903E00424FF3400E00124200010BDC2360020A4360020BE36002010B50B4B1B78042B0ED110F055FA040049
:4014C000084B1B88002B01D00DF094F9002C05D10522034B1A7001E00424FF34200010BDC2360020BE36002003784078000218437047C04670B5050083890D2B1FD104303B
:4015000033332A00002112F001FE041E11D16868FFF7EAFF830706D50A4B1B68290082204000984705E0074B1B6829000620FF309847054A137801218B43137000E00024B7
:40154000200070BD9C360020CB360020024B00225A701A707047C046C836002010B50378042B05D1034B1B78042B01D1FFF7A0FF10BDC046C236002010B582B00400FFF7D5
:40158000B9FF0A4B1B78DB070ED4002809D001A912238B70A3890B80C870206811F004FB02E0206811F08AFB02B010BDCB3600208379002B07D000200BE0C25C002A07D1BC
:4015C0000133DBB200E00023052BF6D9002000E001207047F0B583B004000D00944A117801230B43DBB21370282800D1ABE014D806286AD007D802285FD0052861D00128BF
:4016000000D003E120E0242800D184E0272800D18FE0212800D0F9E06BE0422800D1DFE008D831287BD0412800D1C4E02B2800D0ECE08CE04C2800D1DFE0FA2800D1E0E03B
:40164000432800D0E2E0CEE001AE0727377000237370300004F074FE377001237370300004F06EFE02F040FE724B1E683000FFF79FFF002803D0300002F04EFE02E06E4829
:4016800002F04AFE002010F069F801AE02226B49300001F05EFC300010F07EF8684B33803200FB2100200FF0ABFE3188FB2010F07EF80522634B1A70A8E02800FFF74EFFAF
:4016C000A4E02A78604B1A70A0E02B78002B00D09CE06B78002B06D15C4B0022DA809A805B4A1A606B60524A137801218B4313708CE04F4B1B789B0600D587E0554B1B78A6
:40170000102B02D10522534BDA70534B187851490FF0C6FD7AE06A78504B1A7076E0504B1B88002B01D00DF065F80222454B1A706CE04B4B1B88002B01D00DF05BF8022284
:40174000404B1A7062E005223E4B1A705EE03D4B1B78022B5AD0364A1278D20756D5344A1278520708D50322364B1A70304A137804218B43137049E02D4A1278120708D511
:401780000522304B1A702A4A137808218B4313703CE0032B3AD105222A4B1A70314B1B78002B33D10120FFF71DFE00282ED10322244B1A702AE0284E02222900300001F066
:4017C000C8FB0022204B1A7031783D31FF314900254B591801310232244801F0BAFB15E0FFF7B4FE12E06988214B994201D980218900288811F0E2F908E02800FFF7BCFE0F
:4018000004E01C4A117801230B431370084B1A7811231A4209D0064A137801218B431370154B1B6829002000984703B0F0BDC046CB360020301F0020341F0020189801001F
:4018400048080000C2360020C4360020C8230020181F0020A81F0020C8360020A0360020BE360020CA36002000A70100C0360020FF010000983600209C3600207047C046FA
:40188000024B1B68012018407047C0460C002E401F2318401E3B8340014A13607047C04600E100E01F2318401E3B8340014A13607047C04680E100E001BE704770B50400A5
:4018C0000D000F2802D90020FFF7F6FFA40080239B059C4664442068256070BD70B504000D001F2802D90020FFF7E6FF1034A40080239B059C4664442068256070BDC046CB
:4019000070B504000E00032902D90020FFF7D4FF1F2C02D90020FFF7CFFF03252540ED00063500F0B2FAA408A400074B9C46644421680323AB4099430B003100A940194302
:40194000216000F0A6FA70BD00E400E010B5040006E0084B586800F08FFA074B9C46644480231B029C42F4D8024B9868604300F083FA10BDB01F00200080FFFF10B5034B3A
:401980001B7B584300F078FA10BDC046B01F0020F0B557464E46C0B483B0040000F075FA0190E71E2D2F74D83F4B1B78DBB29C4208D83E4B1B78DBB29A463D4B1B78DBB21B
:4019C000994631E03B4B1B78DBB29C4208D83A4B1B78DBB29A46394B1B78DBB2994623E0374B1B78DBB29C4208D8364B1B78DBB29A46354B1B78DBB2994615E0334B1B7822
:401A0000DBB29C4208D8324B1B78DBB29A46314B1B78DBB2994607E02F4B1B78DBB29A462E4B1B78DBB299462D4BDE5D2F2E09D92A2C07D919222B4B1A60052000F01CFA0C
:401A4000192503E0274B1D683F231D40B54206D9234BDA5D234B1A60052000F00DFA1F4B9C4664442378DBB21F4A13601F4B52461A601F4B4A461A600520FFF77FFFB54298
:401A80000AD2174BDA5D174B1A60052000F0F4F902E00020FFF710FF019800F0FAF903B00CBC91469A46F0BD40F3FF0F41F3FF0F42F3FF0F43F3FF0F44F3FF0F45F3FF0FDC
:401AC00046F3FF0F47F3FF0F48F3FF0F49F3FF0F4AF3FF0F4BF3FF0F4CF3FF0F4DF3FF0F289801002CFF0B4028FF0B401CFF0B4020FF0B4010B504000F4A116801230B430C
:401B000013600E4A0E4B1A600E4A1368802109020B431360002809D100200CE00120FFF72DFFFFF7ADFE002804D1013C002CF5D1102000E0002010BD60F02E4002200000CC
:401B400078002E4010002E40024A116802230B431360704710E000E010B5FFF7F5FF034A116801230B43136010BDC04610E000E00002000A014B18607047C04614E000E071
:401B8000012805D1054A116804230B43136004E0024A136804218B431360704710E000E0024B1868000C01231840704710E000E010B5FFF7F5FF01280BD107E0A300054A75
:401BC0009B58002B00D09847013400E00024042CF4D910BDD02300200022014B1A60704718E000E010B5002304E0990000200B4A88500133042BF8D909490F20FFF75EFED2
:401C00000120FFF7BDFF074B1869FA21890000F0DDFAFFF7ADFFFFF7DFFF10BDD0230020B11B0000B01F002010B5064B5B69002B04D1FFF7D7FF0122024B5A61FFF78CFF30
:401C400010BDC046D0230020024A8300985899507047C046D02300208000014BC0587047D0230020034B1868C0231B02184000D00120704700010B4010B50D4B1A6801217D
:401C80008A431A601A68022082431A60094A10683024A043203C204310601068093CA043014311601A68802109060A431A6010BD00F02E4000FF2E4070B51D4B1B680124AE
:401CC0001C40002802D0012816D02BE0184B19680122914319601968022081431960154B19682E3081432038014319601968093881430A431A6018E00D4B1A6802218A4319
:401D00001A600C4A10680725A84301431160116830208143103801431160196801220A431A6002E00020FFF7C7FD200070BDC04600F02E4000FF2E4010B500F0A6F8044A1F
:401D40001368C02109020B43136000F0A2F810BD00010B4010B500F098F808490A68084B1A408024E40122430A600A6813408022120213430B6000F08CF810BD00010B40C2
:401D8000FF3FFFFF70B5050000F07FF80400FFF769FF002803D0FFF7DDFF012100E0002108482840084A1568084B2B40184310601368012901D1FFF7BFFF200000F069F858
:401DC00070BDC0460404040010020B40FBFBFBFF10B5244B1B685B0715D5234B5B685B070ED5224B596A042001401F4C62688A4362605A6A82435A629B69002B00D0984762
:401E00000420FFF7BFFF174B1B685B0518D5164B5B685B0510D5154B596A8022D2001140114842688A434260596A114A0A405A62DB69002B00D098478020C000FFF7A2FF9C
:401E4000084B1B685B030CD5074B5B685B0304D5064B1B6A002B00D098478020C002FFF791FF10BD10020B40C41F0020E8230020FFFBFFFF000000000230800803D0013853
:401E8000FDD1C046C046C0467047EFF3108072B6704780F31088704710B5274B1B68002B00D09847254B1B685B071DD5244B1B680133812B00D10023224A1268934205D146
:401EC000214B1B682022214B1A7006E01E4A1268D2B21F49CA541A4A13601E4B1B68DB06E4D104221C4B1A601C4B1B689B0721D51B4B1A681B4B1B689A4213D0194B1B6890
:401F00000133802B00D10023174AD25CD2B217490A60144A1360164B1B681F221340082BE6D104E0134A136802218B4313600222114B1A6010BDC046C0230020CC0F25408E
:401F40000C3600200436002040032540003600201436002008032540C00F25408C0F25401036002008360020803500204002254008022540880F2540800F254001607047E2
:401F800001607047324B1A781202324B1B781A43314B1B781B02314909780B4330498B4201D1072A06D0D42109018B4206D1042A04D102E02B4B042200E02A4B2A490B608E
:401FC0002A4B1A602A4B1B781B022A4A1278134380229201934202D0002B02D002E0264B00E0254B254A1360254B1B781B02254A12781343244A934205D0244A934204D07D
:40200000052B05D103E0224B02E0214B00E0204B204A1360204B1B681B09204A1268AA2A15D1012B13D9164B1B780E2B0FD11C4B1B781B021B4A127813431B4A13601B4B65
:402040001B781B021A4A127813431A4A1360704759F1FF0F58F1FF0F5FF1FF0F5EF1FF0F580B0000580D00006C002E4074002E405BF1FF0F5AF1FF0F0220000078002E4035
:402080005DF1FF0F5CF1FF0F0F0F000005050000050F000080002E40EC0F00F0E00F00F06DF2FF0F6CF2FF0F84002E406FF2FF0F6EF2FF0F94002E4010B5FFF75FFC10BDE8
:4020C00010B5FFF743FC10BD10B500F04FF810BD10B500F053F810BD10B500F04FF8034800F02EF8032000F031F810BDC521000010B5024800F04AF810BDC046C52100003D
:4021000000487047020200002B2070472B2070472B2070472B2070472B2070472B2070472B2070472B2070472B2070472B2070472B2070477047C046012070470120704719
:40214000014B18677047C0460000002010B50400FFF79BFE044A1368C0218B43A4011C431460FFF796FE10BD0CE400E080225201014B1A607047C04600E100E0802252011A
:40218000014B1A607047C04680E100E010B50400FFF7F4FF2000FFF7D3FF0320FFF7D6FFFFF7E4FF10BDC04610B5FFF76EFE044A136804218B43136030BFFFF76AFE10BDB7
:4021C00010ED00E010B516F0B5FB10BD002243088B4274D303098B425FD3030A8B4244D3030B8B4228D3030C8B420DD3FF22090212BA030C8B4202D31212090265D0030B90
:402200008B4219D300E0090AC30B8B4201D3CB03C01A5241830B8B4201D38B03C01A5241430B8B4201D34B03C01A5241030B8B4201D30B03C01A5241C30A8B4201D3CB020F
:40224000C01A5241830A8B4201D38B02C01A5241430A8B4201D34B02C01A5241030A8B4201D30B02C01A5241CDD2C3098B4201D3CB01C01A524183098B4201D38B01C01A21
:40228000524143098B4201D34B01C01A524103098B4201D30B01C01A5241C3088B4201D3CB00C01A524183088B4201D38B00C01A524143088B4201D34B00C01A5241411AF8
:4022C00000D20146524110467047FFE701B5002000F0F0F802BDC0460029F7D076E7704703460B437FD4002243088B4274D303098B425FD3030A8B4244D3030B8B4228D38B
:40230000030C8B420DD3FF22090212BA030C8B4202D31212090265D0030B8B4219D300E0090AC30B8B4201D3CB03C01A5241830B8B4201D38B03C01A5241430B8B4201D357
:402340004B03C01A5241030B8B4201D30B03C01A5241C30A8B4201D3CB02C01A5241830A8B4201D38B02C01A5241430A8B4201D34B02C01A5241030A8B4201D30B02C01A6B
:402380005241CDD2C3098B4201D3CB01C01A524183098B4201D38B01C01A524143098B4201D34B01C01A524103098B4201D30B01C01A5241C3088B4201D3CB00C01A5241AF
:4023C00083088B4201D38B00C01A524143088B4201D34B00C01A5241411A00D201465241104670475DE0CA0F00D04942031000D34042534000229C4603098B422DD3030AAB
:402400008B4212D3FC22890112BA030A8B420CD3890192118B4208D3890192118B4204D389013AD0921100E08909C3098B4201D3CB01C01A524183098B4201D38B01C01A35
:40244000524143098B4201D34B01C01A524103098B4201D30B01C01A5241C3088B4201D3CB00C01A524183088B4201D38B00C01A5241D9D243088B4201D34B00C01A5241E6
:40248000411A00D20146634652415B10104601D34042002B00D54942704763465B1000D3404201B5002000F005F802BD0029F8D016E770477047C04670B500220C4B040024
:4024C0000D0000F0D5FB002804D12000290000F065FB70BD064B00222000290000F00AF800F05CFB80231B069C466044F1E7C0460000E041F0B557464E464546E0B40E000B
:402500001100F20F9246C500420F180337037400400A4E0F7F0A3043CF4E17435A00640D520DDB0FC900B24200D1E5E001267340A61AB446534500D1AFE0002E00DC0DE1CD
:40254000002A3AD103000B4300D0E4E06B0709D00F232B40042B05D02B1DAB42AD416D427F191D003B0200D488E0BB4B01349C4200D110E13A00B94B51461A4001235007D0
:40258000ED08520264050543120B640D0B400021280012030D0D120B64052D0515436208AF4CDB072C401443640064081C4321001CBC90469946A246F0BDA74B9C42C5D0DF
:4025C00080231B0418436346382B00DDFDE01F2B00DD30E1624620239B1A02009A40664690460A009940F24046464B1E99413243114363460200DA40691A8D429B410D0015
:40260000BA1A5B42D71A3B0235D57A02530A98464346002B00D1C4E0404600F033FB0300083B1F2B00DDC5E020222900D21A4746D1409F400A009D403A439C4200DDC0E0C8
:402640001C1B631C1F2B00DDE4E0202114002800C91AD8408C408D400443DA40681E854117002543002471E7424663461A4300D14CE2674645466B0700D069E701235146EE
:402680007807ED08FA080B40054373498C4238D012036405120B640D79E7002E00DC9AE0002A47D06C4A944200D14FE78022120410436246382A00DC08E10143481E814175
:4026C0000022C9B24919D219A942BF410D007F42BF183A0200D442E15F4A0134944200D14EE101205D4A69083A4028400843D507054357089A4629E706000E4300D017E77B
:4027000014E72900114300D1F9E1802109030A431203120B3BE701235B429846C4446346002B72D1691A8D429B413F1A5B42FF1A0D0068E702000A4300D107E7012252420C
:402740009046C4446246002A00D0E6E06918A942B6413F187642F7190D00BAE7002E00D080E0621C5205520D012A00DCF9E06A1A91464D45B6413A1A7642921B90461202EA
:4027800000D499E04D1BA9428941C71B49427A1A90469A463CE752460123002513400022F5E6280000F06EFA20300300083B1F2B00DC39E72A002838824000259C4200DC1D
:4027C0003EE7264FE41A1740C0E60143481E81410022C9B210E7002E00D0F1E0621C94465205520D012A00DCA0E01B4A944500D1C5E06918A94292413F185242D2194908C6
:40280000D5070D4357086446A0E6134B9C4200D0D9E69BE611001F3CE1400C00202B00D180E04021CB1A9A4015436A1E95410027254300241FE763460200203BDA40634624
:40284000202B71D0402366469B1B98400143481E814111430022CFE6FF070000FFFF7FFFFFFF0F80002C48D0CA4CA24200D1A2E07442A1468024240427434C46382C00DD52
:40288000DBE01F2C00DD44E14E462024A41B3E00A640A246B0464C462E00E640B4464646644626435446A5406C1EA54134002C434D46EF400D1B28E04A4643464D461A436B
:4028C00000D0A5E6002300240025DEE61F2A5ADC66462022921B060096409146B04662460E00D640424616434A4691404A1E9141020060463143C240E4E63C002C435AD085
:40290000F443A146002C52D14D1BA9428941C71B49427F1A14009A4675E69E4A944200D0C7E613E600227FE700208FE7002C00D0C8E03B002B4300D10FE103000B4300D136
:4029400004E66918A9429B413F185B42DF193B0200D41AE1904B0D001F406446F6E59A4689E63A002A43002C5CD1002A75D102000A4300D1CAE007000D009A46E6E564466F
:402980000022002581E662460600203AD6406246B046202A00D1B7E040226646921B904001434246481E8141114300228AE6794CA24200D061E707000D0014009A46C5E523
:4029C000002C41D13C002C4378D0F443A146002C20D0704CA24271D04C46382C00DDB2E01F2C00DDBCE02026341BA2463C005646B4404E46A0462C00F440A446444666461F
:402A00003443A4465446A54064466E1EB54125434C46E7406D188D4289413F184942CF19140056E6002A2FD102000A4300D184E007000D009A46574C88E53D436F1EBD4174
:402A4000ECB200270D1B60E7524CA24236D0744280263604A1463743BEE702000A4300D174E56A1A90464545B6413A1A7642921B9446120200D4F7E54D1BA9428941C71B54
:402A800049427F1A9A4661E502000A433AD0ED087C072C438025FA082D032A4208D0C7082F4205D145072C003A009A46C9080C43670FD200E5001743364C47E507000D0060
:402AC000140043E53A002A4343D002000A4319D0ED087C072C438025FA082D032A4207D0C6082E4204D147073C003200C9080C43D700620FE50017439A46264C26E50022B2
:402B0000002544E5234C21E5002049E700230025BBE54C463E00203CE6404C46B446202C31D040244E46A61BB7403D436C1EA54164462C4300270D1BE7E6802200231203C0
:402B4000144C0025A1E53D436F1EBD410027EDB260E707000D000F4CF8E407000D00F5E44E463C00203EF440A0464C46202C0ED040244E46A41BA7403D436F1EBD414446C3
:402B80000027254346E70027CFE70D0073E50027F2E7C046FF070000FFFF7FFF0B0330B5134D1A0B4B005B0DC90F0024AB4211DD104CA34210DC8024640322430E4CE41A98
:402BC0001F2C0CDD0D48C31ADA4013005C42002900D11C00200030BD094BCC18FAE7E040084CA44663449A4013000343EEE7C046FE0300001D0400003304000013040000E5
:402C0000FFFFFF7FEDFBFFFF8446101C62468C46191C634600E0C0461FB500F0F5F8002801D40021C8421FBD10B500F049F84042013010BD10B500F0E7F8002801DB00201B
:402C400010BD012010BDC04610B500F0DDF8002801DD002010BD012010BDC04610B500F06FF8002801DC002010BD012010BDC04610B500F065F8002801DA002010BD0120FD
:402C800010BDC0461C2101231B04984201D3000C10391B0A984201D3000A08391B09984201D30009043902A2105C40187047C0460403020201010101000000000000000054
:402CC000F0B55F4656464D464446F0B41F035C00DB0F9A46194B0E034D00C90F8046360B6D0D8B4691463F0B640D9D4219D0134B9C421BD00123A54206D018003CBC9046B1
:402D00009946A246AB46F0BDBE42F6D1C845F4D1D34510D0002DF0D1304303005A1E9341EBE7310001230143E7D1E0E73A430123002AE2D1DEE70023DFE7C046FF070000CB
:402D4000F0B55F46444656464D46F0B41F033C0B2C4F0E034D00A3465C008446360B6D0DC90F9046640DDB0FBD422BD0254FBC422ED0002D0ED1304307008146784278416D
:402D8000002C17D15F463A4314D14B460020002B0AD006E0002C02D15846024301D099421AD00123484218433CBC90469946A246AB46F0BD0028F2D05842584101224042E6
:402DC0001043F1E737000743D0D002204042EBE75F461743CDD0F8E7A542E2DC05DB5E45DFD808D000205E45DED248424841012340421843D8E7C445D3D80020C445F4D3F5
:402E0000D2E7C046FF070000F0B55F464D4644465646F0B41C03240BA4462F4C0F034D005E00C90F80463F0B6D0D8B469146760DDB0FA54220D0284CA64222D0002D12D10A
:402E4000384344424441002E20D0002C0DD05C42634101245B421C4320003CBC90469946A246AB46F0BD002E17D05B4519D05B465C4201231C43EFE7390002240143EBD15A
:402E8000D9E7614602241143E6D1D7E761460A43DBD100240028DFD0E9E761460A43E4D1E5E7B54203DD01225C421443D4E7B542CDDB6745DBD809D000246745CCD259464E
:402EC0004C426141012449420C43C5E7C845CED80024C845F3D3BFE7FF070000014B18687047C0467C2300200E4B70B500251E000D4CE41AA410A54204D0AB00F3589847FD
:402F00000135F8E716F0F4FC084B00251E00084CE41AA410A54204D0AB00F35898470135F8E770BDFC980100FC980100FC9801000499010030B50024A24208D0035D651C15
:402F40000C5DA34201D0181B02E02C00F4E7002030BD002310B59A4203D0CC5CC4540133F9E710BD03008218934202D019700133FAE770470FB40B4B13B51C68002C05D052
:402F8000A369002B02D1200000F05EFA05AB049AA1682000019300F083FD16BC08BC04B01847C0467C23002070B505000E00002804D08369002B01D100F046FAAB69AC6841
:402FC000002B02D1280000F03FFA254B9C4201D16C6808E0234B9C4201D1AC6803E0224B9C4200D1EC68A3891B0702D52369002B11D12100280000F0BDF800280BD0012051
:4030000040422BE0013B0136A360002B08DB23685A1C226019703178A3680029F2D10BE0A269934201DB0A29F1D12200280000F049F8431CEFD1E2E7013BA360002B08DA88
:4030400022000A31280000F03DF8431CD7D00A2004E00A2023685A1C2260187070BDC0465C9801007C9801009C98010010B5034B01001868FFF798FF10BDC0467C23002038
:403080000EB410B59DB002A9029008610B48822488604861012040421FABC881084804CBA400006801938C8100F0D4FB0023029A13701DB010BC08BC03B01847FFFFFF7F9E
:4030C0007C230020F8B505000F001400002804D08369002B01D100F0B7F9234B9C4201D16C6808E0214B9C4201D1AC6803E0204B9C4200D1EC68A369A360A3891B070AD520
:403100002369002B07D023682269FEB2981A636998420FDB08E02100280000F02BF80028F1D0012040421DE02100280000F01EF90028F6D1A3680130013BA36023685A1C71
:4031400022601F706369984205D0A3893000DB0708D50A2E06D12100280000F007F90028DFD13000F8BDC0465C9801007C9801009C980100364B70B51D6806000C00002DF4
:4031800005D0AB69002B02D1280000F05DF9314B9C4201D16C6808E02F4B9C4201D1AC6803E02E4B9C4200D1EC680C22A35E9AB2110723D4D10607D40922012032603732B2
:4031C0001343A381404242E0530713D5616B002908D023004433994202D0300000F02CFA002363632422A3899343A38100236360236923600822A3891343A3812369002B44
:403200000BD1A0238022A1899B0092000B40934203D02100300000F0D1F90123A289134005D00023A36063695B42A36103E0920700D46369A36000202369834207D10C2258
:40324000A35E1A0603D540221343A381013870BD7C2300205C9801007C9801009C980100F7B58A8905000C0013075AD44B68002B02DC0B6C002B19DDE76A002F16D0002320
:403280002E682B6080235B011A4001D0606D14E00123216A2800B847431C0ED12B68002B0BD01D2B01D0162B02D12E6000205AE04022A3891343A38155E0A3895B0706D59A
:4032C0006368C01A636B002B01D0236CC01A00230200216A2800E76AB847A389421C06D129681D293AD8204ACA40D20736D50022626022692260DB0405D5431C02D12B68BD
:40330000002B00D16065616B2E600029CED023004433994202D0280000F08EF90020606321E00F69002FC1D00B680F60DB1B01930023920700D14B69A36003E0019B3F1823
:403340001B1A0193019B002BB0DD019B3A00216A2800A66AB0470028F0DCA389402201201343A3814042FEBD010040200B6970B505000C00002B01D100201CE0002804D026
:403380008369002B01D100F05FF80B4B9C4201D16C6808E0094B9C4201D1AC6803E0084B9C4200D1EC680C22A35E002BE4D021002800FFF755FF70BD5C9801007C980100F2
:4033C0009C98010010B5024900F0B0F810BDC0466D330000002310B5040003604360836081814366C281036143618361190008225C30FFF7B7FD054B24626362044BA36266
:40340000044BE362044B236310BDC0461D400000454000007D400000A940000070B568254B1E5D430E002900743100F051F9041E08D000212A00016046600C30A0606832D5
:40344000FFF790FD200070BD836913B50400002B28D18364C3640365134B144A1B6882620193984201D101238361200000F020F86060200000F01CF8A060200000F018F893
:403480000022E06004216068FFF7A4FF01220921A068FFF79FFF02221221E068FFF79AFF0123A36113BDC04658980100C5330000F8B51D4B06001D68AB69002B02D128004C
:4034C000FFF7C2FF4835AC686B68013B05D40C22A75E002F10D06834F7E72B68002B01D02D68F0E704213000FFF798FF28600028F6D10C23336016E0012320005B42E3818F
:403500000233A38167662760A760676027616761A7615C3008223900FFF724FD20006763A763A764E764F8BD58980100F7B504000700002601914834002C16D06368A568ED
:403540000093009B013B00930DD4AB89012B08D90E22AB5E013304D029003800019B984706436835EDE72468E6E73000FEBD000070B50E001D000E23C95E90B014000029EC
:4035800006DA00232B60B3891B060FD540230FE001AA00F0B5FD0028F3DBF023029A1B021340054A9B185A4253412B608023DB000020236010B070BD00E0FFFFF7B502260B
:4035C0008B8905000C00334210D101AB6A46FFF7CFFF00990700280000F07AF800280CD10C22A35E9A0523D43343A3812300473323602361012363611AE080220D4BAB6215
:40360000A38920601343A381009B20616361019B002B0AD00E23E15E280000F083FD002803D00122A3891343A381A3891F43A781F7BDC046C533000070B50500002944D048
:403640000C1F2368002B00DAE418280000F0B0FD1E4A13681100002B02D16360146031E0A3420DD92268A018834203D118685B688218226063600C6024E0A24203D813008A
:403680005A68002AF9D11E689819A0420BD12168711858181960824214D110685268411819605A600EE0A04202D90C232B6009E021686018824203D110685268411821600A
:4036C00062605C60280000F074FD70BD7C350020032370B5CD1C9D43083506000C2D01D20C2501E0002D01DBA94202D90C23336048E0300000F05CFD234B1C681A002100F1
:40370000002913D00B685B1B0DD40B2B02D90B60CC181EE08C4202D1636813601AE04B6863600C0016E00C004968E9E7174C2368002B03D1300000F05FFC20602900300036
:4037400000F05AFC431C18D00323C41C9C43A0420DD12560300000F02CFD200007220B30231D9043C31A0ED05A42E2500BE0211A300000F041FC431CEBD10C233000336099
:4037800000F017FD002070BD7C35002078350020F0B58E6885B007000C00039201939E4243D890238A89DB001A423ED003250969236801985B1A029363695D43EB0F5D1964
:4037C000029B6D1001331B18AB4200D91D00530510D529003800FFF77BFF061E14D0029A2169FFF7B6FBA289194B134080221343A38112E02A00380000F0DCFC061E0CD167
:4038000021693800FFF718FF0C23402201203B60A38940421343A38117E0029B2661F61826606561019EED1AA560019BB34200D21E0032000399206800F0A5FC0020A36891
:403840009B1BA36023689E19266005B0F0BDC0467FFBFFFFF0B59FB0029005938B890F0016001B0610D50B69002B0DD14021FFF72FFF38603861002804D10C23029A013856
:403880001360D8E040237B61002306AD6B6120336B761033AB7634002378002B03D1A31B049312D003E0252BF9D00134F4E7A31B320039000298FFF76BFF431C00D1B4E06C
:4038C0006A69049B944663446B612378002B00D1ABE00122002352426A6002A95432521801342B60EB60AB601370AB65534E21780522300000F03CFC002807D00123801B88
:4039000083402A68013413432B60EFE72B68DA0604D55322202102A8121811701A0704D553222B2102A81218117022782A2A03D0099B00200A210EE0059A111D1268059164
:40394000002A01DB099204E05242EA60022213432B6001340BE02278303A092A04D84B4301349B180120F6E7002800D0099323782E2B1ED163782A2B0AD1059B02341A1DA9
:403980001B680592002B01DA01235B42079310E000230A201A0001346B6021783039092904D84243013452180123F6E7002B00D00792234E21780322300000F0D9FB002821
:4039C00006D04023801B83402A68013413432B60217806221B48661C297600F0C9FB002812D0194B002B06D10722059B073393430833059314E005AB00933A00134B29007B
:403A0000029800E000BF07E005AB00933A000F4B2900029800F0CEF90390039B013304D06B69039A9B186B6135E7BB890B985B0601D5012040421FB0F0BDC046BC98010038
:403A4000C2980100C69801000000000091370000936810B5013B9360002B05DA9469A34208DBCBB20A2B05D01368581C10601970C8B201E0FFF726FB10BDF8B506000F0096
:403A80001400D518AC4208D021783A003000FFF7DFFF0134431CF5D100E00020F8BD0000F0B59FB006000F0002920593002804D08369002B01D1FFF7C7FC7F4B9F4201D109
:403AC000776808E07D4B9F4201D1B76803E07C4B9F4200D1F768BB891B070AD53B69002B07D0002306AD6B6120336B761033AB763DE039003000FFF73DFB0028F1D00120C7
:403B00004042D6E0059A111D12680591002A00DA7FE00992013423782E2B00D18DE021780322684800F024FB002807D0654B2A68C01A4023834013432B6001342178631C1F
:403B4000062261480293297600F012FB002800D19DE05E4B002B00D090E00722059B07339343083305936B69039A9B186B61029C2378002B04D1029BE31A049312D003E0EE
:403B8000252BF8D00134F3E7049B029A39003000FFF773FF431C00D186E06A69049B944663446B612378002B7ED00122002352426A6002A95432521801342B60EB60AB6014
:403BC0001370AB6521780522414800F0D1FA002808D03F4B2A68C01A0123834013432B600134EFE72B68DA0604D55322202102A8121811701A0704D553222B2102A812187F
:403C0000117022782A2A00D17CE7099B00200A2105E05242EA60022213432B607AE72278303A092A04D84B4301349B180120F6E7002800D16FE709936DE763782A2B0AD1F8
:403C4000059B02341A1D1B680592002B01DA01235B42079363E700230A201A0001346B6021783039092904D84243013452180123F6E7002B00D152E7079250E705AB00938E
:403C80003A00144B2900300000E000BF07E005AB00933A000F4B2900300000F08BF80390039B013300D05EE7BB895B0600D526E70B981FB0F0BDC0465C9801007C980100B9
:403CC0009C980100C2980100C698010000000000BC9801007B3A0000F7B5170001938A680B6900900C00934200DA130022003B6043321278002A01D001333B6023689B06FE
:403D000002D53B6802333B60062523681D401ED0230043331B785A1E9341226892061CD53020E1184331087021005A1C45310978A2184332023311700FE022000123193285
:403D400001990098089EB047431C0ED00135E3683A689B1A9D42F0DBDAE72200019943320098089DA847431C02D10120404220E006232068E1683A6803400025042B03D1BB
:403D80008D1AEB43DB171D40A3682269934201DD9B1AED180027BD420AD0220001231A3201990098089EB047431CDED00137F2E70020FEBDF0B58BB006920A0043320793F1
:403DC000059004920A7E0C00109B6E2A00D1ABE011D8632A22D009D8002A00D1B5E0582A00D0C5E045310A70814A4FE0642A1DD0692A1BD0BCE0732A00D1AAE009D86F2AA4
:403E000029D0702A00D0B3E0202209680A43226037E0752A1FD0782A33D0A9E00E001A684236111D196013683370A4E021681A68080606D4490604D5111D19600023D55ECE
:403E400002E0111D19601568002D3BDA2D23049A6D42137036E021681A68080606D4490604D51568111D1960ADB202E0111D196015685F4B227E039308276F2A1DD00A275A
:403E80001BE022007821453211705A4A19680392081D226818600D68100602D4500600D5ADB2D30702D520231A4322601027002D03D1202322689A43226023000022433396
:403EC0001A7002E00A274A4B03936368A360002B09DB0422216891432160002D05D1049E002B11D07BE0002D79D0049E28003900FEF7F2F9039B013E5B5C2800337039001C
:403F0000FEF764F9051EF1D1082F09D12368DB0706D563682269934202DC3023013E3370049B9B1B23612BE009681A68080607D4490605D5111D19601368A28A1A8004E0FE
:403F4000111D1960136862691A600023049E236116E01A68111D1960166800216268300000F006F9002801D0801B6060636803E0260042363270012323610023049A1370BC
:403F8000079B09AA00932100069B0598FFF7A4FE431C02D10120404227E02369320006990598079DA847431CF4D0236800259B070FD4099BE068984217DA180015E022007B
:403FC0000123193206990598079EB047431CE1D00135E368099A9B1A9D42F0DBE9E72600039B42361B7833708EE70BB0F0BDC046CD980100DE980100002370B5064C050046
:4040000008002360FCF72EFF431C03D12368002B00D02B6070BDC046CC36002070B50C000E25495F00F0ECF8002803DB636D1B18636503E0A289024B1340A38170BDC04686
:40404000FFEFFFFFF8B51F008B8905000C001600DB0505D50E23C95E0022022300F074F8A289054B28001340A38132000E23E15E3B0000F01FF8F8BDFFEFFFFF70B50C00C8
:404080000E25495F00F060F8A389421C03D1054A1340A38104E0802252011343A381606570BDC046FFEFFFFF10B50E23C95E00F015F810BD70B50500080011000022064CE4
:4040C00022601A00FCF7A2FE431C03D12368002B00D02B6070BDC046CC360020002370B5064C05000800236000F0AAF8431C03D12368002B00D02B6070BDC046CC360020A3
:40410000002370B5064C050008001100236000F09FF8431C03D12368002B00D02B6070BDCC360020002370B5064C05000800236000F096F8431C03D12368002B00D02B603E
:4041400070BDC046CC36002070B50500080011000022064C22601A0000F08AF8431C03D12368002B00D02B6070BDC046CC360020C9B28218904204D003788B4202D0013086
:40418000F8E70020704710B5884202D98B18984201D3002305E09B1A013A08D3995C8154FAE7934203D0CC5CC4540133F9E710BD70477047F8B506000C001500002904D107
:4041C0001100FFF785FA040018E0002A03D1FFF733FA2C0012E000F027F885420ED929003000FFF775FA071E07D021002A00FEF7B0FE21003000FFF71FFA3C002000F8BD28
:4042000070B50500080011000022064C22601A0000F036F8431C03D12368002B00D02B6070BDC046CC3600200B1F1A68101F002A04DA891804390B68D01804387047000065
:4042400058220120014B40421A607047CC36002058220120014B40421A607047CC3600205822024B00201A607047C046CC36002058220120014B40421A607047CC360020CA
:4042800058220120014B40421A607047CC360020134A1088810703D08107890F401A001D11791030484381B25088820703D08207920F801A001D800040180A494030098991
:4042C00080B2CA0701D0503080B2890706D504495422091F09785143081880B270470000D21F00201C24002010B501F0FFFE10BD10B501F0BDFF0DF08BF810BD10B501F05E
:40430000BFFF0DF08DF810BD10B501F0F5FE10BD10B500F05BFA10BD10B50749044609780220002907D1204601F042FF002802D120460DF0FFFA10BD6221002070B5044652
:404340000120002C12D02368002B0FD0616800290CD0074D06222889208118462968FEF7F8FD6968606809780170002070BD00001C240020FFB585B0002768460E9D0773E9
:404380004F481C460078002802D0082009B0F0BD10990F9801900095029105A807C800F007F90028F2D16946264603AB84460873002C19D0002115E08A00B75A082F09D9B7
:4043C00090198078002805D0083FB7521878401C187005E0002914D00027B75290198770491CC9B2A942E7D360460028CED10F98002809D0109901F029FA002804D0012025
:40440000C4E701208446EFE701F076FE2D480021416081600599016021888180022D07D3A1798171A17AC171A1890181218A418100211EE0481C19E082008B00A75AE65AA5
:40444000BE46BE4211D26F463E80B4461E190296B678BE7001967646E6521719029EBB78B3706646A652019EBE70401CA842E3D3491CA942DED3134822460C300090684661
:40448000037B0799069800F01BF90028B8D168460B4C007B60700B480C3001F069FE0028AED1084907480C310AF040F90028A7D10AF05AF90028A3D10121217066E7000014
:4044C000CC1F002010240020F8B5054636480F460078002802D002242046F8BD002F60D000243249002D16D02A89D0070DD02868002808D003881B3BE12B04D24088FB2829
:4045000001D81B2801D2012409E0900707D56868002804D1F7E70020088108604860002CDAD122482E8906811F481B21801D01804180042101711C490020891C0870F00776
:4045400005D019480622801D2968FEF702FD1749B00703D56A68144812788270124D0E46AD1D281F0D60486001F048FE284601F037FE308910F082FF308910F0A3F8288840
:4045800010F0A6F8308911F0B1F803461033FFF77FFE1F21C018890140183880A91F88809AE7012498E70000CC1F00201C240020FFB58446384F1C460020BB883F7805461D
:4045C00002460646002F11D100290ED0029999420BD36146002908D0002C06D00A99002906D02E4B0B99994202D2012004B0F0BD002144E0AB001F19BF78002F3BD0E35A4B
:40460000002B38D07B43591889B22B0000F04AF8050410161C253100A7782388BC46FF27233BEB37BB4222D26346032B1FD322E0A388002B1FD0302B19D31CE02389002B52
:4046400019D0282B13D316E0A289002A13D01346134F233BBB420AD20DE0268A002A0AD033460F4F233BBB4201D2964203D901200EE0002001E000280AD16D1CEDB2099BBF
:404680009D42B7D31C2463435B1802998B42ACD89642AAD8AAE70000CC1F002079020000BAFF000030B47446641E2578641CAB4200D21D46635D5B00E31830BC1847000062
:4046C000FFB583B0002469460C801F4606468C80002806D00598002803D004983043800701D0012466E0002FFBD03449049809888842F6D3FDF7FCFCFDF7EAFC00F012FC54
:40470000002855D100F062FD002851D12C49084601F0D0F805042D0C4AD12A480499066081800021C18007810C98007AC00704D0684601F0FAFC040007D10C98007A80078A
:4047400003D501A801F006FD0446BF1DFEB2002C20D13146059800F05DF804001AD110F0D3FF040016D16A461088928808368518144AF1B29088D288AEB29319984207D35C
:40478000401B801A80B201F085FB050007D000E0FF25012400F05EFA002D04D008E0F8B200F01CF9F6E700F081FA07490120087000F0CAFB204607B0F0BD0000D01F0020BD
:4047C0000149000028240020D81F002010B503480078012801D101F0FFF910BDD81F002070B5084B0446DA889E8800205518B54206D81D68AA182260DA885118D98070BDD6
:40480000032070BD28240020014800897047000028240020F0B587B007460D4600208900009006916846FFF7DBFF844600285DD1304800990160002117E02E4B88001A68D0
:404840000629115406D22C4C0419667882185670628805E0C419203CA67A8218567022891B68C018491C4280C9B2A942E5D300242DE0601CC2B2059025E01E4FA3003968BA
:404880009600581840887118039604904E88B04217D938466F46FE80B6464F786E4677710297049F4F800168039F5E18767879184E700168764659184E800068029F181846
:4048C0004770521CD2B2AA42D7D30598C4B2AC42CFD36046002809D168460699FFF780FF8446002802D1054900980860604607B0F0BD0000DC1F002028990100E01F002053
:404900007047000010B5002809D005494A68002A05D0011F08788000105801F069FA10BDDC1F002010B50446FFF76EFFC0B2801DA0420CD307484068002808D0A1004058C5
:4049400001F0C8F9002801D00470001D10BD002010BD0000DC1F0020F8B516460D460446FFF752FFC0B2801DA04203D20020C0430090F8BDB2B2E9B2684601F0D1F900990A
:40498000481C03D0024AA000526811500098F8BDDC1F0020F8B50746FFF736FF801DC6B20A49002005460C680DE06178002907D06188B94202D32078FFF7B4FF002804D128
:4049C000241D6D1CEDB2B542EFD3F8BDDC1F002010B5002801D0FFF795FF10BD70B506460948002504680BE06178002905D062882078121D0023FFF7AFFF241D6D1CEDB2BA
:404A0000B542F1D370BD0000DC1F0020FFB581B00A9F16000C4620D000F0F2F8054604281BD0002F0CD03846FFF7B4FF20492A0151184860002810D03A460499FEF789FADD
:404A40001B4928010E504618778101980570200406D47D20C000444304E0FF2005B0F0BD6404640C00F0BAF80746042807D000F04FFAA0420BD800F04BFA201A03E0204620
:404A800000F0AAFA0020F06035720020E6E700F03FFA009000F0B6FA00980121001B009000F0ECF802493A0151180098C860E6E734240020F8B5060116483418217A0429B2
:404AC00003D0E068002802D017E00020F8BD00F01FFA054600F096FA00F0A0F804280CD001010C480F18F8680021451900F0C6F80020F860284600F06FFA6068054D0028E6
:404B000001D0FFF765FF042020720020A8516081E060DAE734240020FEB500266A46304601232549050169180D7A042D02D0C96800291BD000211154401CC0B20428F0D3F7
:404B400000246846005D002830D01B48210108184189476805680291002101604160042241810272C160002E02D015E01354E3E700F054F804280ED001010F4808180190AA
:404B8000C6680021304600F079F801980021C160304600F021FA0126002D07D038460299A847002F02D03846FFF712FF641CE4B2042CC6D3FEBD0000342400200EB50020C5
:404BC00005216A4600901181508103486946006811F0FFFB0EBD0000E41F0020074A0020010189180B7A042B02D0C968002903D0401CC0B20428F3D37047000034240020EB
:404C00000549002002015218127A042A03D0401CC0B20428F6D370473424002030B50A4B04200A4C00210A011219157A042D06D0D268002A03D09A4201D808461346491C81
:404C4000C9B20429EFD330BDFFFF0000342400207047000030B50020074C05460423020111190B72A5504D60401C4D81C0B2CD600428F4D330BD00003424002030B5094C3F
:404C800000231A011219157A042D04D0D568002906D02D18D5605B1CDBB2042BF1D330BD2D1AF7E734240020002070471CB5002469460C70142001902346054A054811F0FE
:404CC0008DFB04480068401C00D1FF2420461CBD294D0000E41F00203EB5124A0146FF2000230124126800290DD0012914D0042908D104206946009308814B81104611F0AD
:404D000068FB80B23EBD68460093048143816946104611F059FBF4E768460093048143816946EBE7E41F002070B545890468416800890300FFF7B6FC08280509091E22280B
:404D40002628002007F034FF1EE0022908D0C8B22A4621460FF00AFC2046FFF739FE13E002202A4621460FF001FC2946204600F00DF809E0002011F02BF805E02046FFF791
:404D8000CBFE01E0FDF7D6F9002070BD014B0022DB681847E81F002070B5448905680089022803D0032809D0FF2070BD2246094C0023A46829460120A04708E0FFF7A4FAEE
:404DC000241DA2B200232946022009F062FB002070BD0000E81F002070470000024800214160018041807047E81F002070B50C46002186B016460391012802D0022859D1B0
:404E000016E003A9012009F099FB01281BD1039D324621462846FEF79CF80095287801900220694608814E816846FFF7B5FF41E0214D002B686809D0049004A9022009F091
:404E40007DFB01281DD0022006B070BD002812D0298840182146FEF77CF828880024801980B228806988091D884206D12C801348FFF792FF03E00320E6E788421AD96C60D3
:404E800018E004986860E278A378110219430B4A698000231060E3565360032313815181A1788170E178C1706178417021780170042028800020C7E7E81F002074240020C8
:404EC0003EB515460C46022803D004280CD000203EBD0091019002206946088107484A81006811F076FA07E00FF040FB044B0022DB6829462046984701203EBDE41F0020BB
:404F0000E81F0020014AD16090607047E81F0020034801688068081A0A214843000970478024002010B5FDF7D7F8482204490548FEF70FF803490120C870002010BD0000EE
:404F4000449901008428002010B5FDF7BDF810BD70B5134C2368002B08D0207B1149C20705D04008400020738868A08070BD88680B4AA18880B29268814203D90A4D691A3C
:404F8000091802E0814202D2411A5118A160A080A0689842EAD311F039FA00F013F870BD80240020C0102E40FFFF000010B508461946FFF7A7FF10BD704710B5FFF780FFAB
:404FC00010BD000003480021016041608160C1607047000080240020024610B5FF20002A0CD0FFF7EFFF064C0321207B0843207310010A21FDF770F92060002010BD0000EE
:405000008024002000B504480A21806848430209FFF7D8FF104600BD802400200248007B8007C00F704700008024002010B54B490868002802DA4A4B01221A7002229043C2
:405040000860484800694549C00B4031096A0246C907C90F0A4259D0012000F07FFA3F480E216C30FCF78CFF3E4820218430FCF787FF3C4814219C30FCF782FF3948FF2145
:40508000C131A430FCF77CFF3648FF212F31B030FCF776FF33483449BC30FCF771FF31483249AC30FCF76CFF30492E48491CB430FCF766FF2B482E49B830FCF761FF2948DB
:4050C0002C49CC30FCF75CFF26482B490830FCF757FF24482949A830FCF752FF214828498830FCF74DFF1F4826498C30FCF748FF1C481921C9029030FCF742FFFCF742FF66
:40510000FCF7FEFFC0B2022812D01FE000290BD0002101420AD0114801216030FCF730FF0120FCF7CDFF97E70121F2E7FF2010BD15491648FCF724FF14481549001DFCF7B2
:405140001FFF124800210830FCF71AFF54200449C043891C0870002010BD000000F02E40F81F002000002E40320300002F3F00003102000010520000EC160000FA1200003B
:4051800031D000003AE300009956000080012E40F80F000070B50646581C80B245086D00002408E0304600F0A9F81055000A1119A41C4870A4B2AC42F4D3D80705D0D01850
:4051C0002038D15CC47FD454C17770BD10B5FF2000F0C4F90F49FF2048700E481021801D41800121417001700A490020C91C4870FFF71CFF04000AD100F010F90721064802
:40520000FCF7BCFE044807211830FCF7B7FE204610BD0000F81F0020CC112E4070B5002405465B1E0AE0284600F068F8010A161971702D1D1055A41CADB2A4B29C42F2DB09
:405240009C4203D1284600F059F8105570BD000070B500210A4D5B1E0AE0541864782602545C344346193480001D891C80B289B29942F2DB994202D1515C4019018070BD58
:4052800000102E40F0B50599091FCFB200217E1E0BE0541864782502545C2C43164D45192C80001D891C80B289B2B142F1DBFC0712D01C78515C24020F4A0C4381180C80DA
:4052C0009C785D78001D210280B2294384182180001D80B2D9780CE059781A7809021143054A84182180001DD9789B78090280B2194380180180F0BD00102E4001494018D0
:405300000088704700102E4010B50B490020487000F084F8002000F047F9002000F034F907210648FCF72AFE044807211830FCF725FE002010BD0000FB1F0020CC112E40F1
:4053400010B50B46062812D006DC01280CD0032801D1FFF7D9FF10BD0A28FCD00B28FAD105480078107010BDFFF730FF10BD1146184600F035F910BDFE1F0020F8B5244D8D
:40538000AC6A0127A007234E002816DA307806280ED1286A384328621F480069F903084381B21D481030FCF7EBFD042000F0D6F8174802212830FCF7E1FDE00718D000F01D
:4053C00067FF01280FD1002000F0B4FF062000F0C5F81049FF20C91E48707078002802D1686B384368630A4801212830FCF7C6FDE0050BD53078042802D1052000F0AEF8EC
:405400000348FF2101312830FCF7B8FDF8BD000040F02E40FB1F002000002E4010B503212348FCF7ADFD0120FCF746FE20483038406A204C80076178800F890001431C4885
:405440000C38FCF79DFD6078002808D0401E022181401820FDF72AF8C000083800E0B82081B21548FCF78CFD1348032109021438FCF786FD10481149B830FCF781FD612156
:4054800089010F48FCF77CFD0D480321001FFCF777FD0C490C48FCF773FD0B480B496038FCF76EFD084801218838FCF769FD10BD70F02E40FE1F0020D8102E409089000025
:4054C000041E2E40FF0F000058122E40209000000849087806280BD148780749002803D1486B400840004863C86A01221043C86270470000FB1F002040F02E400148007897
:4055000070470000FB1F002000B50300FFF7CAF8080D050D0B070507090D012000BD032000BD042000BD022000BDFF2000BD0000074A9168D26889B2064B92B2994204D151
:4055400005498A4201D1012100E000210170704780002E4033D000003FE3000010B50446FCF7B6FD072C01D9FF2C01D102480470FCF7AAFD10BD0000FB1F002001494870C1
:4055800070470000F81F002010B5064A012805D01921C9021046FCF7F3FC10BD1D21C902F8E7000090002E4010B50A4A141D012808D009491046FCF7E3FC08492046FCF78B
:4055C000DFFC10BD04491046891CFCF7D9FC0349491DF3E788002E4031D000003AE3000070B50C460546FCF78BFDC0B202280E49287804D0FF2810D04C280CD810E0FF2839
:4056000009D10A4AD0680004800F032801D0087807E09069000A553803E00878207070BD4F382070087070BDFA1F002000002E40F0B50122002834D0002932D0042442066C
:4056400000D00524792342065B06D21800D0641C034600221EE00C2516466E43124D00277519AF72104F002ABB51696007D0661EB24209D10D4E86197606760E05E05E060C
:40568000760E8027BE1B00E080269B198919521C2E81D2B2A242DED303480549006B002288611046F0BD00000C270020790200000420002018B50020694608700A480069E1
:4056C00000280ED0132149014018047E684604704F21C900054800F059F8A04201D0012018BD002018BD00000420002090240020074900200C2242435218927A012A05D014
:40570000401CC0B20628F5D300207047012070470C270020F8B50E000446154609D0194F19497868A04202D94018A04201D38D4201D90120F8BD31462046FDF7FBFB002887
:405740001ED02A4631462046FDF703FCE8B200210C224A43D21913895568EE18A6420BD90126641B1B1B9672834209DA1469C01A044AC0B220329676491CC9B20629E7D3A5
:405780000020F8BD0C27002079020000034610B50020024604E09C5C2018521CC0B292B28A42F8D310BD000070B500F05FF8084C064A216907480D46FDF7CBFB0549284682
:4057C000FFF736FFFFF776FF207070BD790200000420002090240020002070470020054A002902D0012902D002E0906000E0D060002070470420002070B5084C1546084667
:405800000549E26889182A46FDF7A3FBE0684019E06028B270BD000090240020042000203EB50A226946FFF7E7FF044606480A2200686946FDF77EFB002802D00020C0431E
:405840003EBD20463EBD000008200020002802D0044A914201D2FF20704703494A610861002070477902000004200020024800218160C160704700000420002070B5074CEA
:4058800015460548A26880182A46FFF743FFA0684019A06028B270BD902400200420002010B503490A220968FFF7E8FF10BD00000820002010B50F4A002313600E4A136057
:4058C0000E4B18600E4801600E49012008600E490860000290600E490C4808600D4914300860FF381538506000F0BCF800F0CAF9002010BD38200020202000204C2000209E
:40590000502000203C2000202C200020542800203020002044200020014610B50020002910D0094B1A689C685118A14209D25868196080188A0704D08A07920F891A091DF8
:40594000196010BD002010BD20200020F8B50024164E671E321F3D463168136806E01422624310328A58521C1BD0641C9C42F6D36A1C14D02C461422544322460C32885066
:405980000C214843FFF7C8FF3168002808510AD031680020103408517068401C70602846F8BD2546E4E73846F8BD000030200020F3B50026F64381B000281BDB1E490968FA
:4059C000884217D80299002914D01B4F142204463F1D54432546396810354859401C09D0FCF776FB38682F1F4159C359994203DBFCF76AFB3046FEBD214608310091465829
:405A000001590C20704308180C220299FDF7A1FA0948761C001D0068C159B14200D100260549009A091D865008684159491C4151FCF74AFB0020FEBD2C200020002803DBDF
:405A400007490968884202D90020C043704704491422091D0968504310300858704700002C200020F0B500200D4A451E0346171F50600FE014260146714314680E1DA35109
:405A80000C461668083433511668083435511468401C635039688842ECD30020F0BD000030200020F3B50026F64381B0002841DB2349096888423DD8029900293AD0204FAF
:405AC000142204463F1D54432546396810354859401C2FD0FCF7FCFA3868415900292BD0211D009146580C21005971430F46C1190C220298FDF72DFA11480021001D0068E7
:405B0000761C00590C34C0190160416081600C48001D00680159B14200D100260849009A091D865008684159491E4151FCF7CCFA0020FEBD3046FEBDFCF7C6FAFAE700001E
:405B40002C200020FEB504460D4600201E49089E0860471E009001900290002C11D0486885420ED2002A0CD0002E0AD0642E08D808460C3001681C2068430C18207A002818
:405B800001D03846FEBD0120226020721846FFF7DDFE6060401C13D06681A6810A4827610C3067610179A94200D205710021684601810A462846029B00F040F82846FEBDE2
:405BC00000202072DDE700003820002038B50124009400F039F838BDFEB50027164EFF433D4600240EE01C20316860430818017A002906D04068FFF721FF002801D02546B2
:405C000003E0641C3079A042EDDA681C12D01C2130684D434419FCF75BFA69466068FFF741FF0546FCF750FA002DD9D1216868468847D5E7FEBD00004420002038B5002421
:405C4000009400F001F838BD1FB500220C49541E0A60002811DB496888420ED808491C220C31096850430818406801A9FFF7A0FE401C02D0002004B010BD2046FBE7000029
:405C800038200020F0B50021114A4D1E174611710C3F0B46BD6016E008461C2460431668041D355114680646235014680836A3551468361DA353044616680A343353183076
:405CC0001468491C255078688142E5D30020F0BD4420002038B500210091002811DB0F49097888420DDA0D4D04010C3529680859002807D0201D0818694600F06FF9002848
:405D000001D0002038BDFCF7E3F928680F34015D491E0155FCF7D8F9009838BD54200020F7B582B0002502986E1E06602E48D21C024017462D4A2C4610460C3801781068D5
:405D400005E02301C358002B0FD0641CE4B28C42F7D3711C28D03401211D40180191039900F02AF900281FD101E02646F1E71F48016820460C300F521C48039902682046D6
:405D80000E30115419480399026820460F3011540398784300F0A0F8144900280968085102D00024009011E001251AE00F48016801980818009900F02CF9002801D00125C5
:405DC00002E00098C0190090641CE4B203988442ECD3002D05D10298066004480179491C0171284605B0F0BDFCFF000060200020F8B50D4600216A468C461180002839DB0F
:405E000023490978884235DA214B04010C3319680A59002A2ED020460C300B5A801C0E5C184670438018954224D3854222D2002006E007465F43BF18AF4206D0401CC0B240
:405E4000B042F6D36046002814D0114E271DC8190C366A46294600F006F900280AD168460088012808D030682946C01900F0D1F8002803D00120F8BD0020F8BDFCF728F954
:405E800030680F34015D491C0155FCF71DF9F3E754200020F8B50F46002400F031F8002817D10C4900220B460C334A600EE021011D680E466A501D680C36AA53B61C1D68B9
:405EC0000F31AA551D68641C6A54E4B2BC42EED31A71F8BD5420002000280BD0C01C074A81085068890053884118994203D893685160181870470020704700005420002095
:405F0000F8B5064600200F4D009029700C0121466846FEF765FC00280CD129460C3100980860301B001F84B221466846FEF758FC002801D0FF20F8BD6C800098A860002023
:405F4000F8BD000054200020F8B5002827DB19490978884223DA174C05010C342168485900281CD028460C30085A009028460E300E5C401C0E5420682F1DC01900F064F807
:405F800000280CD12068002445590EE0094829460C300068C01900F03CF8002801D00120F8BD00982D18641CE4B2B442EED30020F8BD00005420002030B50D4604000BD04A
:405FC000A800FFF789FF6060002805D000202570C0436080002030BD012030BD70B50D46040005D0002D03D00220205E002801DA012070BDFCF76CF80221615E606889003F
:40600000405828606088401E6080FCF75DF8002070BD70B50D46040007D0002D05D002212078615E401E814201DB012070BDFCF74FF86088401C00B26080616880000D50B5
:40604000FCF742F8002070BD10B5040009D0227800216068FCF786FF0020C0436080002010BD012010BDF0B500231D46002802D00224045F0AE00120F0BD46689F00F65929
:406080008E4201D1012503E05B1CDBB29C42F4DA15700020F0BD00000148007870470000682000207CB505460024FEF72DF9A8796946087000A8062229460130FCF749FF65
:4060C0000021684607F05EF80C2806D0072806D01F2806D0122806D006E0022404E0042402E0272400E0012420467CBD01480121417170478C29002010B500F039FAFFF7D8
:40610000FDF9FFF701FA10BD70B504460025FEF7FBF8002C06D0A079012803D8214602F041FE00E00125284670BD01460120002902D050200880002070470000014601203D
:40614000002903D00248007808700020704700006A20002001460120002905D0034854220078504308800020704700006A20002010B502460D49FE2048700324104610F077
:406180004BFC002810D110F0EFFB00280CD108F031FA002808D100F007FC002804D107F0C1FA002800D10024204610BD6820002070B50025044600280ED0A07901280BD823
:4061C000FEF7A2F8A0790028204602D003F0A4F903E003F079F900E00125284670BD0000014610B50120002904D006220248FCF7B0FE002010BD00007420002001460120D8
:40620000002903D00878024908700020704700006A200020F0B589B015460F4606460124FEF772F8002E20D0002F1ED0002D1CD0102239466846FCF78CFE1022314604A8BB
:40624000FCF787FE1021684610F008FB102104A810F004FB2B46102204A9684604F00EFD1021284610F0FAFA0024204609B0F0BD10B506F003FF08F079F806F021F910BD65
:4062800010B506F0FBFE04F073FE07F0CDFE10BD01480079704700008C29002038B504460120002C20D0617801291DD800290BD0FF25E535FEF728F80C4828180088C0B297
:4062C0002070072803D00EE0FF25CD35F2E70020694608706846FFF72BF969460878012801D108202070002038BD000000102E40014A0021926810476820002008B5002257
:406300006B461A7026280CD0094A342852680BD0352805D1900703D50021352008F046FA08BD19462620F9E7D007F9D03420F5E76820002001490871704700008C29002053
:40634000F8B504460120002C26D06178012902D92278092A20D8002905D0FF25E5352078092803D004E0FF25CD35F8E708202070FDF7CAFF2078114F114E08280DD0002086
:40638000FFF712F970780128207810D00D4969180880FE2070700020F8BD0120FFF704F90720B8810549203188800120F2E7B8810248217820308180EBE70000C0112E408E
:4063C0006820002000102E4070B50E46050001D0002400E00C4C002C11D0E28A500609D5D107C90F022003F0D9F9E08A40218843E08204E0D107C90F012003F0CFF93146A9
:40640000284602F03BFE70BDEC280020F8B50546002004460D4E009013E022466946284600F02CFF0098002801D010F0D7FAA878214602F0DFFBA878214602F0CDFB641C0C
:40644000E4B2308AA042E8D8F8BD0000B4290020F7B58E462249086820308078002802D08446002338E0FF20FEBD1D48212100680D5CE9000A1856799779D479127940582A
:40648000B2420DD310F0AAFA1548006820304178491C8907890F41708178491E8170E2E78118B61A0098F6B20160BC4212D1A64204D290197146C0B20E7003E01019714682
:4064C000C0B20C700299EA000D70054909685118087103E05B1CDBB26345C6D30020FEBDB4200020064A02235188891C89B25180814201D8102900D9538050887047000005
:406500007A20002001484078704700007A200020F8B50D460446FBF7DBFD144E3068034620339A78042A1CD0E178A77809020F431978521C491C8907890F19709A70CA009B
:40654000845010184771316800205118087130681018C571306810188571FBF7B5FD0020F8BDFBF7B1FDFF20F8BD0000B420002038B51E4CFEF7C2FF042813D0052811D015
:40658000062812D003282AD007280AD100206946087002460120FEF7D3FEFEF7AFFF0128FBD138BD00F0E1FB38BD02F0AFFB00F0DCFB02F019FC8007800F0228F4D10C4815
:4065C00041880029F0D05B21095D0029ECD101210170A07D0140022003F0E0F838BD02F099FB0120FEF7BAFF38BD0000EC2800207E200020F8B50646002403F03DF9054681
:40660000304603F053F903460A480021068A0DE001228A401046174628401F40002803D0002F01D1224394B2491CC9B28E42EFD82046F8BDB42900201CB500206946487077
:406640006846FFF72BFE01AA69460A20FEF778FE6946042008561CBD70B50D4601F0BAF904000BD02079002808D0FDF74DFEE178A0782A4602F098FD002070BD022070BD7D
:406680000148007870470000C42800204030C07E002800D00120704700B500F001F800BD902148430749084A40186030417F491CC9B24177D289914201D300214177C8B20A
:4066C00070470000CC280020B429002013B501F081F904000BD001F044FE002807D0214601AA0A310620FEF72BFE00201CBD02201CBD000010B50C4601F06CF900280AD09A
:4067000001F02FFE002806D0224604490A20FEF717FE002010BD022010BD0000AD280020F3B581B0074601460026029803F09CF80446002F01D0002500E0154D002D21D000
:40674000284601F07DF9032C04D13946029803F0E7F806463846029902F03EFA032C06D0002C10D00121384601F01AFB03E03146384603F077FA284602F0FEF802212846EC
:4067800002F014F9FEBD3846029902F025FAFEBDEC28002010B5044600F0D0FA002804D104F03EFA002801D00C2010BD2078611C02F006FEFF2801D01F2010BD02F04CFED7
:4067C000FF280AD02178621C02F09CF9044821780068026B601C904710BD072010BD00009C20002010B504F01BFA002801D00C2010BD02F0C7FD03480068C06A8047002016
:4068000010BD00009C20002070B50D460446102110F024F810216018064610F01FF8334610221946204604F029FA1021304610F015F802202870204606F098FE70BD000080
:40684000F8B504464078217802028006870FE0781143A67809050002090D0643084601F0B9F800210546F2B2002812D0002C10D0022F0ED0032F0CD0002A0AD00279092A92
:4068800007D0002A05D0134A5A23527E1B5C9A4207D82889002106F05FFD204610F09EF8FF21002914D10C48224600682946436930469847C0B2FF280AD128464030817EF3
:4068C000F2B2491C8176FF232146284600F009F9F8BD000084280020B82000200020704710B5044604F09CF9002801D00C2010BD2078611C02F064FDFF2808D002F0A8FCD8
:40690000044821780068426B601C904710BD1F2010BD00009C20002010B500F0A9F906F001FF002010BD000010B504460F4801F041FD012817D00D4805222146AC30FCF7C4
:4069400008FB0A490522AC310846BC38FCF701FB00F048FD054880222038C17B1143C17300F0BCF910BD3A2010BD0000EC28002010B5044600786178E2780843A17811430D
:406980000843217908436179084305D004F03AF9002803D00C2010BD122010BD204602F0BBFD002010BD000010B5FBF7A9FB02F085FF044804F0C2F902F054FC012000F077
:4069C00003F810BD94280020F1B586B003A8009005A8019028489F22817A114081726846FDF7ACFC002845D169460989C90705D0224806990068C26868469047694609895F
:406A0000890706D5002835D11D480068816A0698884700282ED11B4E0025757075737571F575357675767575B570F570B5713746F5730120CC3738731F20F880FF21304695
:406A40007972A0300176457603F032FE01F06AFC00242046069901F017FC002803D1641C2406240EF5D0FD720649BD72B573C0310D600D7107B0F0BD84280020B8200020CC
:406A80009C200020CC28002070B505460E46084602F0F2FE0446304602F008FF0121A9400A46224001400A4301D0012070BD002070BD10B50446084602F0F8FE0121A1403A
:406AC000014201D0012010BD002010BD10B5FEF715FD032804D102F01DF90120FEF73EFD10BDFEB51C4616460F46054601F044FFA878FFF7D1FD0246019033463946009427
:406B0000284600F00DF8002808D1A8780199FFF75BFCFF2C02D138460FF060FFFEBD0000FFB585B005460E980C46FF2810D02B49C00009680A5840180179C0795278814283
:406B400001D9012601E09006860F6846038108E06078A1788006860FE0780002014368460181284601F012FC070007D021462846079A00F023FB384609B0F0BD304600F0FB
:406B800015FC04AE0346039002AA29460096204600F00FFA3C20405D002818D0284601F0F5FB012813D0684600890096C0B20190A878231DFF22079902F014FA684600899A
:406BC000039BC2B2A878079902F0BAFDD3E7684600890021C0B20091E9E70000B4200020F8B5002600253046FFF704FD07001DD090201149704340186030447F12E0601C12
:406C0000FBF76AFBCCB23846E040C007C00F07D02146304601F0D8FF21463046FFF780FD6D1CEDB20548018AA942E8D8761C3606360ED7D0F8BD0000CC280020B429002055
:406C400070B50024094D03E0002C01D0002000E028464121095C012901D100F068FA641C2406240EF0D000F039F870BDEC28002010B502F0F7FA0020FFF7A6FE0FF044FF50
:406C8000002010BDF8B5002403F0AEFC012800D10224114F00203E46203601230425082203E0002801D0002100E031460979002907D001290BD002290BD01146814021432B
:406CC000CCB2401C0006000EEBD07C70F8BD1C43F7E72C43F5E70000CC28002070B5144E0024F07BC00921D03546203503E0002C01D0002000E0284601F03EFB012814D089
:406D0000641C2406240EF2D0F07B4006400EF073002403E0002C01D0002000E0284600F006FA641C2406240EF4D0002070BD0000CC28002010B5FFF7A5FF10BD10B50446B5
:406D400006F0D8FE002802D1601C00F001F810BD1CB500240094062269460194FCF7EAF8002800D1122420461CBD10B5FBF78DF80446FEF7C3FB012809D0FEF7BFFB0228CE
:406D800005D0FBF711FA2046FBF783F8EEE72046FBF77FF810BD10B50B4681791943817103D08078114602F051FC10BD10B582798A43827102D1807802F05CFC10BD0000CF
:406DC0000346084800B5834209D8184600F002FE002804D00089984201D1012000BD002000BD0000FF0E0000074A9179491C8906890E917138220A4092014907090E11437E
:406E00000843024908407047CC280020FF0E0000C006C00E70470000F8B507460E4600240D4803E0002C01D0002500E005462979002905D0641C2406240EF3D00020F8BD46
:406E40000021204601F020FA2E712046FFF7CCFF28813C700120F8BDEC280020F7B53D20405C88B015460C46002802D02878042802D200200BB0F0BD6946087200262046FA
:406E8000FFF704FC012800D00126204603A938300191009023460327A17E34333246206A03F06CFF02A8089900900B46019120463A4603A9243003F0C1FE02466846007AE1
:406EC0002870204601F0CCF91046D3E7FFB587B00C4605461078694608723D20005D1746002826D000262046FFF7D0FB012800D00126204603A93830019100902346A17ECF
:406F000034333246206A03F039FF02A80090291D019120462B1D03A924300A9A03F08EFE02006846007A388002D1204601F098F910460BB0F0BDF0B505463C20405C89B05E
:406F400016460C4600280CD0307869460873002806D000272046FFF799FB012803D003E01F2009B0F0BD012703200890204604A93830019100902346E17E34333A46E0697C
:406F800003F0FCFE6846007B03A928180290009120462B46019504A92430089A03F082FE02466846007B3070204601F063F91046D7E7FFB505463C20405C89B016460C4673
:406FC000002810D0084601F0E1F901280BD0308869468883002809D000272046FFF756FB012805D005E000200DB0F0BD0220FBE70127204603A93830019100902346E17E28
:4070000034333A46E06903F0B9FE291D2B1D07A8129A6D4607C5204603A924300C9A03F041FE02466846808B3080204601F022F91046D9E710B518490446484028D0002186
:4070400001231A468A40904221D0491C2029F8D300212046C840C243520618D0400616D0491C1929F5D3A0B2210C020AC3B2884201D193420BD01F21204600F09CF9182860
:4070800005D8A00E062100F096F9022801D2002010BD012010BD0000D6BE898E002801D0002000E003484030C07F012800D0002070470000EC2800200146002049070ED58B
:4070C0000021084B03E0002901D0002200E01A461279022A04D0491C0906090EF3D0704701207047EC2800200146002049070ED50021084B03E0002901D0002200E01A46F4
:407100001279022A04D0491C0906090EF3D0704701207047EC28002010B5044680346068002803D00FF06EFC0020606010BD38B50546002000902846FFF7A8FA01281FD110
:40714000284601F00EF900281AD028792C46C01E40340300FDF7A6FA07050511110511141100284601F018F9012806D068460FF0DBFB002805D0012008E060780028FAD06B
:4071800038BD2846009902F0B3FE0220607038BD40308170704770B50546403528780C46052904D0002C05D1801E022802D8022003F02EF82C7070BD0171704792001018CD
:4071C000C166704710B5002801D0002000E00348002802D0008906F033F910BDEC28002010B5002801D0002000E00448002804D00179072901D100F097F810BDEC28002000
:4072000070B5044605464034A078002805D12078012802D1284601F01FFA6078012802D12846FFF784FF002070BD000070B50546008A00281ED01049F122897A1140C90657
